:020000040800F2
:1000000070050020C500000819200008751B0008B5
:1000100000000000000000000000000000000000E0
:10002000000000000000000000000000C1200008E7
:10003000000000000000000061200008C32000084C
:10004000D700000800000000D7000008D700000813
:10005000D7000008D7000008D7000008D700000824
:1000600000000000D7000008D7000008D7000008F3
:10007000D7000008B1210008D700000800000000E8
:10008000D70000080000000000000000D7000008B2
:1000900000000000D7000008D7000008D7000008C3
:1000A00000000000D700000800000000D700000892
:1000B0000348854600F03CF800480047A9240008A2
:1000C000700500200448804704480047FEE7FEE72B
:1000D000FEE7FEE7FEE7FEE755210008B100000855
:1000E00030B50B46014600202022012409E00D46D0
:1000F000D5409D4205D31D469540491B2546954058
:1001000040191546521E002DF1DC30BD03460B434D
:100110009B0703D009E008C9121F08C0042AFAD2BD
:1001200003E00B780370401C491C521EF9D2704743
:10013000064C0125064E05E0E36807CC2B430C3C3A
:1001400098471034B442F7D3FFF7B6FFF8250008FC
:100150001826000870B5044600688168490720D554
:10016000816810264907002905DA8168890702D4C9
:1001700081683143816000F05FFB05460DE000F0CF
:100180005BFB401B022808D9606C30436064A06CA4
:1001900001210843A064084670BD206880684007BC
:1001A000EDD4002070BDF8B5044600688168890769
:1001B000890F012928D10168C90702D1C168090442
:1001C00022D58168052211401025012601290FD171
:1001D000816802221143816021680320086000F0D9
:1001E0002BFB07460CE000F027FBC01B022807D9B9
:1001F000606C28436064A06C3043A0640120F8BDAB
:1002000020688068C007EED10020F8BDF8B504462C
:1002100000200090206881688907890F012905D195
:100220000168C9072CD1C168090429D48168154A1D
:10023000102611400125002915D1816829438160CC
:10024000124811490068FFF74BFF00E0401E009084
:100250000028FBD100F0F0FA07460CE000F0ECFAC1
:10026000C01B022807D9606C30436064A06C28432F
:10027000A0640120F8BD20680068C043C007EDD12C
:100280000020F8BD1700008040420F00040000204D
:10029000F8B500250446403400952278012A39D06B
:1002A0000122227003689E68760767D4384F4E6833
:1002B000BE424DD09E6A0F78BA4016439E6201231B
:1002C000826B1B079A421FD0012A1DD0022A1BD025
:1002D000032A19D0042A17D0052A15D0062A13D0CC
:1002E000072A11D002688B6856697607760FB342E9
:1002F0000AD05369DB08DB005361006842690B7A5E
:100300005B075B0F1A4342610A68102A04D0112A66
:1003100002D038E00220F8BD1E488368102A07D0BA
:1003200001229205134383600868102803D02AE055
:100330000122D205F6E7194817490068FFF7D0FEF9
:100340000A21484300E0401E00900028FBD11AE03B
:10035000986A0E78B240904398620968102901D0DB
:10036000112910D10B488268102904D00121890578
:100370008A43826007E00121C905F9E7416C202228
:10038000114341640125002020702846F8BD00007B
:10039000011000000027014040420F00040000202F
:1003A0000068006C70470000F8B50025044600287E
:1003B00003D0606C002802D008E00120F8BD0020C6
:1003C000A06440210855204600F0A8F8606C102277
:1003D000C006002870DB2068816849076CD4616C16
:1003E0001301994302231943616481688907890FC6
:1003F000012905D10168C9070FD1C16809040CD4CE
:10040000C16818239943A3681943C1602068016932
:10041000636889008908194301612068C1683D4B00
:100420001940C160A069E1698003C9030843216ADA
:100430004B031843636B012B02D001231B0300E025
:1004400000231843E36818432369022B09D00023D3
:100450001843236B666A5B0018430123012E02D008
:100460000AE00423F4E7002927D0616C20263143F9
:100470006164A16C1943A164A16A0E46FF3EC23EAD
:1004800002D0E66A314308432168CE680643CE6055
:100490000126A16B3607B14213D0012911D00229E0
:1004A0000FD003290DD004290BD0052909D0062926
:1004B00007D0072905D010E028E0012109040843EE
:1004C000DAE721684E69F608F6004E6121684E6948
:1004D000278F7F077F0F3E434E612168C9680E4E0C
:1004E0003140814207D10020A064606C8008800008
:1004F000401C606408E0606C022188431043606423
:10050000A06C1843A06401252846F8BD606C104318
:100510006064F8E71902FEFFE7FF3F8330B500682B
:100520000F4987B0884218D10E48826941150A43A5
:1005300082618069032408400590F32000256A4603
:1005400031C209206946C00600F0CCF802206A4694
:1005500031C26946044800F0C5F807B030BD00005C
:10056000002401400010024000040048F8B5044691
:100570004069254640350E4608280BD02068C068E3
:10058000C00709D0606C20210843606400202870F7
:100590000120F8BD082700E00C2700F04DF900907D
:1005A00011E0701C0FD0002E05D000F045F9009925
:1005B000401AB04207D9606C0421084360640020EF
:1005C00028700320F8BD206800683842E9D0606CCC
:1005D00001214902084360642068C16809058A0F47
:1005E0000C21002A1AD1226A002A17D102681207A8
:1005F00014D5826853070122002B08DB43688B4324
:100600004360606C130298431043606406E0606CC2
:10061000202318436064A06C1043A064A0690028E4
:1006200001D1206801600020F8BD000070B50446CB
:10063000216800208968490721D42546403529785A
:1006400001291CD001212970E169012904D020462B
:10065000FFF7DCFD002811D1616C0A4A1140FF222E
:100660000132114361640021A164297022681C21B8
:10067000116021688A6804231A438A6070BD0220D1
:1006800070BD0000FEF1FFFF70B505460446403521
:100690002878012807D001262E702046FFF75AFD42
:1006A000002802D00CE0022070BD2046FFF77BFD41
:1006B000002805D1616CFF2201329143314361640E
:1006C0000021297070BD31B500F0B6F8009C0546D8
:1006D000601C00D0641C00F0AFF8401BA042FAD3AD
:1006E00038BD0000F8B500238DE001249C40A446ED
:1006F00022407DD04C68022C01D0122C0CD1DC0899
:10070000A40027183C6A5D07ED0E0F26AE40B443E7
:100710000E69AE4026433E6205685E000324B44085
:100720000F79A543BF07BF0FB7402F4307604D6840
:10073000012D05D0022D03D0112D01D0122D0ED187
:100740008568CF68A543B7402F43876047686546F3
:10075000AF430D79ED06ED0F9D403D434560C56803
:10076000A5438C68B4402C43C4604C68E40049D570
:10077000284CA56901263543A561A4699D0834402C
:100780000094254CAD002F19BC689D072E0F0F2536
:10079000B540AC430925ED06A84201D100250FE084
:1007A0001E4DA84201D101250AE01D4DA84201D1EC
:1007B000022505E01B4DA84201D1032500E00525D7
:1007C000B5402543BD60184C25684E689543F60337
:1007D00000D51543256065684E689543B60300D57E
:1007E00015436560A5684E689543F60202D500E0A2
:1007F00008E01543A560E5684E689543B60200D54C
:100800001543E5605B1C0A681446DC4000D06CE7C9
:10081000F8BD000000100240000001400004004844
:1008200000080048000C004800040140002A01D0E4
:10083000816170478162704701480068704700001D
:100840000000002070B5024640325378202B1CD1A6
:100850001378012B19D001231370242454700468D9
:1008600025689D432560046825681E03B5432560FF
:10087000046825680D43256000680168194301601C
:10088000202050700020107070BD022070BD70B527
:10089000024640325378202B1BD11378012B18D0FD
:1008A000012414702423537003681D68A5431D6040
:1008B00005682B680F263602B343090219432960E5
:1008C00000680168214301602020507000201070F2
:1008D00070BD022070BD000008B506498A69012379
:1008E0001A438A6189691940009103490A680243E1
:1008F0000A6008BD001002400000014070B504000D
:1009000006D02546403568780026002802D005E04C
:10091000012070BD2E70204600F02EFA2420687051
:10092000206801684908490001600F2160680906D4
:1009300088432168086121688A680120C0038243D6
:100940008A60E1680129A16808D02122920211433E
:1009500022689160E168022902D005E00143F7E7CF
:1009600001212268C902516021684A680F4B1A436D
:100970004A602168CA688243CA6061692069084385
:10098000A169090208432168C860216AE069084337
:1009900021680860206801680122114301606664D3
:1009A000202068702663AE70002070BD00800002B9
:1009B000FFB50446002083B02546403501906A7893
:1009C000202A7FD122689269D24312047AD52A78EC
:1009D000012A77D001222A7024226A7060648F0570
:1009E000BF0DE06801280BD00520C0020121381896
:1009F0008902884321684860FFF71EFF064612E01F
:100A00003148F3E70698401C0DD00698002805D021
:100A1000FFF712FF811B0698814204D920206870DD
:100A20000020287043E020688169C943890606D503
:100A30008069C043C00602D56878A028E2D120684A
:100A40008069069BC043C00600960ED50022202177
:100A5000204601F057F9002829D121682020C861DB
:100A600068700020287007B0F0BD002220212046C9
:100A700001F048F900281AD120681021C1612068CE
:100A80002021C1610198411C01910599884214D12E
:100A900020684168012292031143416000960022C0
:100AA00020212046069B01F02DF9002802D00320CA
:100AB000D9E707E021682020C861019905988142A3
:100AC0008FD3ABE70220CEE700200002FFB505463A
:100AD00004464035687883B0202873D10C980028EC
:100AE00071D00D9800286ED0287801286AD0012096
:100AF0002870FFF7A1FE0746012200901923D103B9
:100B0000204601F0FFF8002876D1222068704020AE
:100B1000A870002666640C9860620D986085666314
:100B20000E980090019704A90EC9204601F06EF8B6
:100B3000002804D0606C2E70042860D05CE0618DC9
:100B400009208002FF2905D9FF22228501231B06E7
:100B5000009006E0618D21850090208D0123C2B2B6
:100B60005B062046049901F0BBF80097002204219F
:100B700020460E9B01F0C6F800283DD12068416A4E
:100B8000606A421C62620170208D401E81B2218524
:100B9000608D401E6085002921D1608D00281ED007
:100BA00000970022802120460E9B01F0ABF8002820
:100BB00022D1608DFF2807D9FF22228501231B0641
:100BC000009608E02AE01AE0608D20850096208DCE
:100BD0000123C2B25B062046049901F081F8608DC2
:100BE0000028C2D13A4620460E9901F0AFF80028FD
:100BF00007D0606C042802D0032007B0F0BD0120AC
:100C0000FBE721682020C86121684A68044B1A402C
:100C10004A606870AE702E700020EEE70220ECE7AC
:100C200000E800FEFFB5054604464035687883B00D
:100C3000202876D10C98002874D00D98002871D007
:100C4000287801286DD001202870FFF7F5FD0746B0
:100C5000012200901923D103204601F053F8002807
:100C600053D1212068704020A870002666640C983B
:100C700060620D98608566630E980090019704A9E4
:100C80000EC9204600F0F7FF002804D0606C2E70DB
:100C900004286AD039E0608DFF2805D9FF2222851B
:100CA00001231B06009606E0608D20850096208DAE
:100CB0000123C2B25B062046049901F011F83A46BE
:100CC00020460E9901F069F8002803D0606C0428D2
:100CD0004BD01AE0606A411C61622168007888622A
:100CE000608D401E6085208D401E0004000C208514
:100CF00024D1608D002821D0009700228021204639
:100D00000E9B00F0FFFF002802D0032007B0F0BDCB
:100D1000608DFF2807D9FF22228501231B0600963C
:100D200008E024E021E0608D20850096208D0123DD
:100D3000C2B25B062046049900F0D2FF608D002805
:100D4000BDD13A4620460E9901F000F80028BDD1E9
:100D500020682021C16120684268064B1A40426029
:100D60006970AE702E700020D0E70120CEE702201F
:100D7000CCE7000000E800FE00B50068134987B02A
:100D8000884220D1032040020090122001900120CF
:100D90000290032003900420049009206946C006B5
:100DA000FFF7A0FC01208005FFF796FD0120C0059C
:100DB000FFF792FD0648C269012149050A43C26155
:100DC000C0690840059007B000BD00000054004015
:100DD0000010024002480168491C01607047000091
:100DE0000000002010B50648016810221143016080
:100DF000002000F007F800F041F8002010BD0000CE
:100E00000020024000B5014687B000220D2000F00E
:100E100061F80D2000F054F813488269C1140A43A8
:100E2000826180690840059004A9684600F060F975
:100E300000F080F90D49FFF753F90E490C4A0A609A
:100E40000D4A401ECA60486000200861886008465C
:100E500000F0ECFC002802D0012007B000BD0548DE
:100E600000F0FFFCF9E700000010024040420F00D4
:100E7000002C014030010020E703000008B50F48B6
:100E80008169012211438161816911400091C26928
:100E900001040A43C261C069002208400090114663
:100EA000501F00F017F800221146901E00F012F8B3
:100EB00000221146501E00F00DF808BD001002403F
:100EC000C106C90E01208840014908607047000032
:100ED00000E100E010B501F0A1F810BDF8B505463D
:100EE0000068354CC00352D5E0690026C00007D425
:100EF000E16920040143E161E169014001260091BB
:100F00002E480168C90510D401688215114301609B
:100F1000FFF792FC074604E0FFF78EFCC01B642835
:100F200024D826480068C005F6D5206A03273F026A
:100F3000384020D06968394081421CD0206A226A3A
:100F4000B843012109040A432262226A8A432262C9
:100F50002062C0070FD0FFF76FFC009008E0FFF79A
:100F60006BFC0099411A1648814201D90320F8BD53
:100F7000206A8007F3D5206A6968B8430843206275
:100F8000002E04D0E169012000078143E161287847
:100F9000C00705D0206BA968800880000843206343
:100FA0002878800605D5206B10218843E96808431E
:100FB00020630020F8BD00000010024000700040D7
:100FC00088130000F8B5054644480E460068C0077F
:100FD000C00FB0420AD24148016849084900314374
:100FE00001600068C007C00FB0425CD128783C4C5B
:100FF000800705D56068F0218843A96808436060D0
:101000002878C0073FD06868012813D021680228DB
:1010100013D08907002946DA6168890889000143ED
:101020006160FFF709FC6968074601290DD00229B4
:1010300017D024E021688903ECE78901EAE7FFF78C
:10104000FBFBC11B2748814217D860680007800F4F
:101050000128F4D117E0FFF7EFFBC11B21488142C3
:101060000BD860680007800F0228F4D10BE0FFF76F
:10107000E3FBC11B1B48814201D90320F8BD606816
:101080000007800FF3D115480168C907C90FB142A5
:101090000BD9016849084900314301600068C00765
:1010A000C00FB04201D00120F8BD2878400706D516
:1010B0006068072109028843E9680843606000F01E
:1010C00049F86168084A0906090F515CC840074998
:1010D00008600020FFF796FE0020F8BD00200240C7
:1010E0000010024088130000E025000804000020E2
:1010F00010B5072202600A4A53689B079B0F4360A2
:101100005368F02423408360526807231B021A406F
:10111000C26004480068C007C00F086010BD00002E
:1011200000100240002002400148006870470000A3
:10113000040000200448054900684968044A49053C
:10114000490F515CC8407047040000200010024065
:10115000F025000810B512A30FCB88B06C460FC461
:1011600013A30FCB0FC416494A680C201346034043
:101170001448042B0FD0082B0DD193021B0F6C4683
:10118000E45CC96A04AB0907090F595CD20304D5B2
:10119000FEF7A6FF604308B010BD0B486043FAE7B6
:1011A00002030405060708090A0B0C0D0E0F1010A8
:1011B0000102030405060708090A0B0C0D0E0F10A7
:1011C0000010024000127A0000093D00FEB50446FE
:1011D0000078D04DC00747D068680007800F01280D
:1011E00007D068680007800F022809D16868C0032B
:1011F00006D52868800337D5606800287ED033E0A4
:10120000012062680004012A11D08100002A01D067
:10121000052A10D02A6882432A60286888432860FB
:101220006068002814D0FFF707FB06460CE0296829
:1012300001432960F4E72A680A432A60F7E7FFF7C9
:10124000FBFA801B64286FD828688003F7D50BE071
:10125000FFF7F2FA064604E0FFF7EEFA801B642877
:10126000F1D828688003F7D4207801268007002869
:101270003BDA68680007800F07D068680007800FB6
:10128000022809D16868C00306D42868800715D5EC
:10129000E068012832D111E0E0680028286815D004
:1012A00030432860FFF7C8FA074604E0FFF7C4FAA6
:1012B000C01B0228C7D828688007F7D52868F821FE
:1012C00088432169C900084328600EE040084000B7
:1012D0002860FFF7B1FA074604E0FFF7ADFAC01B3C
:1012E0000228B0D828688007F7D42078000724D5D2
:1012F000E0690028686A10D0304300E008E16862C5
:10130000FFF79AFA074604E0FFF796FAC01B022897
:1013100099D8686A8007F7D50FE0400840006862F6
:10132000FFF78AFA074605E09DE0FFF785FAC01B44
:10133000022888D8686A8007F7D4207804274007F5
:10134000002860DA00200190E869C00008D4E9694B
:10135000B8060143E961E96901400120009101906B
:101360006D480168C90511D40168821511430160F7
:10137000FFF762FA009005E0FFF75EFA0099401A65
:10138000642870D864480068C005F5D5A0680128B5
:101390000AD0002801D0052810D0286A4008400053
:1013A0002862286AB84301E0286A30432862A068AE
:1013B000002812D0FFF740FA00900AE0286A38436C
:1013C0002862F1E7FFF738FA0099411A5348814241
:1013D00049D8286A8007F5D50DE0FFF72DFA00906F
:1013E00006E0FFF729FA0099411A4C4881423AD8A1
:1013F000286A8007F5D40198002804D0E969012003
:1014000000078143E9612078C00635D5606901286D
:101410000CD0401D686B23D038436863686B40086C
:1014200040006863FFF708FA064622E0686B38431D
:101430006863686B30436863FFF7FEF9064604E0B3
:10144000FFF7FAF9801B02285BD8686B8007F7D595
:10145000686BF8218843A169C900084368630BE001
:10146000B8436863F4E74CE0FFF7E6F9801B022815
:1014700047D8686B8007F7D4206A002846D069688F
:101480000907890F022943D0012636060228286859
:1014900005D0B0432860FFF7CFF9044633E0B043EE
:1014A0002860FFF7C9F9074604E0FFF7C5F9C01B3C
:1014B000022826D828688001F7D4E86AE16A000982
:1014C00000010843E862616AA06A084369683D2236
:1014D0001204914308436860286830432860FFF78E
:1014E000ABF9044604E0FFF7A7F9001B022808D86F
:1014F00028688001F7D509E0FFF79EF9001B022854
:1015000001D90320FEBD28688001F5D40020FEBD6E
:101510000120FEBD00100240007000408813000052
:1015200070B5040003D0607F002802D006E00120DF
:1015300070BD00202077204600F04CF80220607734
:101540002168CA204862216853204862204600F082
:101550009BFDFF250426002824D1206881681C4AB1
:10156000114081602168886862686369104322695C
:101570001A43104388602168E068086120680169A7
:1015800022891204114301612068C16880229143BD
:10159000C16020688068800608D4204600F000F909
:1015A000002803D0206845626677C0E72068016C98
:1015B00001229204914301642068016CA2691143E5
:1015C00001642068456201206077002070BD000042
:1015D000BFFF8FFF00680549884205D10448016AB2
:1015E0000122D2031143016270470000002800402D
:1015F00000100240F8B50446007F0B46012815D0C4
:1016000001202077022060775878002A10D000F05F
:1016100028FD987800F025FDD8789D7800040543D2
:101620005878197800024903084316E00220F8BDF3
:10163000C10603D5EF2108400A305870D87800F071
:1016400018FD0504587800F014FD00020543987851
:1016500000F00FFD05431878400305432168CA20B8
:101660004862216853204862204600F00DFD0026A4
:10167000FF27002811D110480540206845602068E8
:10168000C16880229143C1602068806880060BD4C5
:10169000204600F085F8002806D020684762042024
:1016A000607726770120F8BD2068476201206077C7
:1016B00026770020F8BD00003FFFFF00F8B5044684
:1016C000007F0D4601280ED0012020770220607790
:1016D000206800278068002A07D0400618D528789F
:1016E00000F0BFFC15E00220F8BD400600D4EF700A
:1016F000287800F0BEFC0604687800F0BAFC00020E
:101700000643A87800F0B5FC0643E878000409E039
:10171000EF702878AE78000406436878E978000214
:101720000904084306432168CA20486221685320FF
:101730004862204600F0A8FC00281ED11748064049
:1017400020680660206881680122920491438160CC
:101750002969E868084321688A681043886020681E
:10176000C16880229143C1602068806880060CD4E3
:10177000204600F015F8002807D02168FF204862B5
:101780000420607727770120F8BD2168FF20486298
:101790000120607727770020F8BD00007F7F7F0061
:1017A00070B504460068C168A0229143C160FFF78C
:1017B00043F87D260546F60006E0FFF73DF8401B9E
:1017C000B04201D9032070BD2068C0688006F4D5FE
:1017D000002070BD042204490428086902D0904307
:1017E000086170471043FBE700E000E0704700002D
:1017F000094910B5401E884201D9012010BD074C8F
:1018000060610321081F00F009FC0020A06107208F
:101810002061002010BD0000FFFFFF0000E000E09D
:1018200010B5FFF7E3FF10BD7047704770B50400B7
:1018300005D025462035687F002802D006E001202B
:1018400070BD00202877204600F00AF80220687753
:10185000211D206800F0B4FC01206877002070BDD5
:1018600070470268D36801210B43D36000680268A7
:101870000A43026000207047704770B50446006854
:1018800001690025C9438907002915DBC168C943DF
:10189000890711D4E91E0161012020772068806941
:1018A0008007204602D0FFF7E7FF04E000F096F83B
:1018B000204600F094F8257720680169C94349075C
:1018C00017D4C168C943490713D40421C94301612E
:1018D00002202077206880698005800F204602D092
:1018E000FFF7CAFF04E000F079F8204600F077F82F
:1018F000257720680169C943090716D4C168C9431F
:10190000090712D40821C943016104202077206807
:10191000C0698007204602D0FFF7AEFF04E000F068
:101920005DF8204600F05BF8257720680169C9431F
:10193000C90617D4C168C943C90613D41021C943C5
:101940000161082020772068C0698005800F20464B
:1019500002D0FFF791FF04E000F040F8204600F0CD
:101960003EF8257720680169C943C90708D1C168D5
:10197000C943C90704D1891E0161204600F030F82F
:1019800020680169C943090609D4C168C943090629
:1019900005D48021C94301612046FFF745FF206837
:1019A0000169C943490609D4C168C943490605D438
:1019B0004021C9430161204600F01CF820680169FC
:1019C000C943890609D4C168C943890605D42021C1
:1019D000C94301612046FFF728FF70BD704770477B
:1019E00010B500680249884201D1FFF7F3F910BD34
:1019F000002C0140704770B5040005D025466035C5
:101A0000687A002802D006E0012070BD002028720C
:101A1000204600F027F824206872206801684908F1
:101A200049000160204600F075FC0128EDD0606A95
:101A3000002802D0204600F0FFFB20684168012208
:101A4000D2029143416020688168082291438160FD
:101A500020680168012211430160204600F051FC1A
:101A600070BD000000B500680E4987B0884217D1EC
:101A70000D488269012189030A4382618069084017
:101A800005900C200090022001900020029003207D
:101A900003900120049009206946C006FEF722FE4B
:101AA00007B000BD0038014000100240FFB50646F7
:101AB00004466036707A83B00D46202858D1002D38
:101AC0000CD00598002809D00120A16800038142AC
:101AD00007D12069002804D1E80702D0012007B00F
:101AE000F0BD307A012843D0012030720020E0663A
:101AF00021207072FEF7A0FE01902746403705981E
:101B000038820598788218E0788A401E7882069894
:101B10000090002280212046019B00F085FC0028D7
:101B200018D10120A1680003814202D12069002858
:101B300012D02168287808856D1C788A0028E3D1A6
:101B400006980090002240212046019B00F06CFC8A
:101B5000002808D00320C2E728882168C005C00DEE
:101B60000885AD1CE9E72020707200203072B6E7CE
:101B70000220B4E7FEE701688A69D243920701D4E4
:101B800000228A6200688169C943C90703D081695C
:101B90000122114381617047F7B5044600680E4683
:101BA0008069C043C0062CD42027254640352068D4
:101BB0008069C04380060FD5701CF8D0002E05D078
:101BC000FEF73AFE0299401AB042F0D96F70002039
:101BD000A87028700320FEBD21681020C86120680D
:101BE000C7612046FFF7C7FF20684168064A1140D9
:101BF0004160042060646F700020A870287001208C
:101C0000FEBD0020FEBD000000E800FEF8B5044661
:101C10000120164640031D46DAB20090079F0023BC
:101C2000204600F05DF83A462046069900F0B5F8E7
:101C3000002803D0606C04281BD018E02846F5B2B9
:101C4000012809D02168300A88623A462046069960
:101C500000F0A3F80028EDD12068856200970022EB
:101C600040212046069B00F04DF8002800D00320BC
:101C7000F8BD0120F8BDF8B5044601201646400322
:101C80001D46DAB2C3020090079F204600F028F8F4
:101C90003A462046069900F080F8002803D0606C90
:101CA00004281BD018E02846F5B2012809D0216885
:101CB000300A88623A462046069900F06EF80028FD
:101CC000EDD1206885620097002280212046069B86
:101CD00000F018F8002800D00320F8BD0120F8BD5E
:101CE00070B50568049C68688905890D1204044E66
:101CF00011431943304021430143696070BD000026
:101D0000009800FCF8B51C4617460E46054611E043
:101D1000601C0FD0002C05D0FEF78EFD0699401AEE
:101D2000A04207D92020403568700020A870287094
:101D30000320F8BD286881693046884304D000201C
:101D4000B842E5D00020F8BD0120F9E770B516468D
:101D50000D4604461AE0324629462046FFF71CFF8E
:101D6000002801D0012070BD002D04D0FEF764FDD5
:101D7000801BA8420AD9616C202001436164403471
:101D800060700020A0702070032070BD2068806902
:101D9000C0438006DFD4002070BD70B516460D46E6
:101DA00004461CE0324629462046FFF7F5FE00288F
:101DB00001D0012070BD681C11D0002D04D0FEF7A9
:101DC0003BFD801BA8420AD9616C2020014361645D
:101DD000403460700020A0702070032070BD206827
:101DE0008069C0438007DDD4002070BD3EB5324914
:101DF0003248002412C004604460C460046144613D
:101E00008461C461012544628560FF21C562C231DD
:101E1000846201620838FEF7C7FA002800D0FEE7A6
:101E200001200003019000040290009469462348B9
:101E3000FEF72EFA002800D0FEE769461F480095FD
:101E4000FEF726FA002800D0FEE70520009069463C
:101E50001A48FEF71DFA002800D0FEE70620009081
:101E600069461648FEF714FA002800D0FEE707205E
:101E7000009069461148FEF70BFA002800D0FEE7F3
:101E80000920009069460D48FEF702FA002800D0AC
:101E9000FEE71020009069460848FEF7F9F900288F
:101EA00000D0FEE71120009069460448FEF7F0F9E3
:101EB000002800D0FEE73EBD0024014008000020BD
:101EC00010B5164886B04269012189050A4342616E
:101ED00042690A400592426949110A4342614269D6
:101EE0000A400592426949000A4342614069092457
:101EF0000840E4060590002210212046FEF796FCDB
:101F00001020009000210120029103910190694668
:101F10002046FEF7E7FB06B010BD000000100240AF
:101F200010B51248104901601149416000218160DB
:101F30000161416181610122C161C2600162FEF7FC
:101F4000DDFC002800D0FEE700210848FEF77AFCFF
:101F5000002800D0FEE700210448FEF798FC002886
:101F600000D0FEE710BD00000054004074000020C7
:101F70005D3E300110B51849184886B0002412C0E3
:101F80007F2101608460C460FF21046141600838E2
:101F9000FFF7C6FA002800D0FEE7684604704470D8
:101FA00084700394012269460C480494FFF786FB71
:101FB000002800D0FEE7012069460875487588753D
:101FC000CC75024605A90548FFF714FB002800D090
:101FD000FEE706B010BD00000028004054000020BD
:101FE00010B50C480A490160E12149024160002115
:101FF0008160C16001618161C1610C220162426145
:102000004162FFF7F8FC002800D0FEE710BD000099
:1020100000380140C0000020704700008307FF2205
:10202000DB0E9A408907090E994000280BDA000759
:10203000000F0838830808489B001818C3699343A9
:102040000B43C3617047830804489B001B18186842
:10205000904308431860704700ED00E000E400E0A2
:10206000704701090A2200075143000F4018C0B20F
:102070007047002102E00A38C0B2491C0A28FAD28F
:102080000907090E0843704770B504460068C16827
:10209000490613D40021C943C160FEF7CDFB7D265C
:1020A0000546F60006E0FEF7C7FB401BB04201D92B
:1020B000032070BD2068C0684006F4D5002070BDC4
:1020C000704710B5FFF7ACFB10BD000070B594B0C1
:1020D00019200090012001900590079000040990BC
:1020E000102500010226069500240A9008960B94FC
:1020F0006846FFF76BF8002800D0FEE707200C9039
:102100000E9401210D960F940CA8FEF75BFF00289A
:1021100000D0FEE70E481090C01111A931C110A8DF
:10212000FEF7DCFE002800D0FEE7FEF7FDFF7D2174
:10213000C900FDF7D5FFFFF75BFB0420FFF74AFB63
:1021400000221146501EFEF7C5FE14B070BD0000FF
:102150002100010013480168012211430160416818
:10216000114A114041600168104A11400160016844
:10217000012292049143016041683F22120491437D
:102180004160C16A09090901C162016BFF22143271
:1021900091430163416B490849004163002181601B
:1021A00070470000001002400CB8FF08FFFFF6FE69
:1021B00010B50248FFF761FB10BD000030010020A0
:1021C00070B50268174B184E984201D0B04203D147
:1021D0007024A2434C682243144C154D984208D0F9
:1021E000B04206D0134EB04203D0A04201D0A84264
:1021F00004D103263602B243CE6832438026B2436E
:102200004E69324302608A68C2620A6882629842FA
:1022100003D0A04201D0A84201D109690163012184
:10222000416170BD002C01400004004000440140A9
:10223000004801400020004010B5818CC90707D03C
:1022400001684A6801235B049A43836A1A434A601F
:10225000818C890707D501684A6801231B049A43CA
:10226000C36A1A434A60818C490707D501684A68E6
:1022700001239B049A43036B1A434A60818C09072C
:1022800007D501684A680123DB039A43436B1A436D
:102290004A60818CC90607D50268916801231B0337
:1022A0009943836B19439160818C890607D5016836
:1022B0008A6801235B039A43C36B1A438A60818C4B
:1022C000490612D503685A6801210905046C8A433E
:1022D00022435A60026C8A4207D102685168032384
:1022E0005B059943436C19435160818C090607D5FE
:1022F00001684A680123DB04806C9A4302434A6008
:1023000010BD0021C16620226030427282720172CB
:1023100008467047F8B504462369A268E6691A437F
:10232000636910213343002026681A433368054649
:10233000394F3B401343336023685A680326360302
:10234000B243E66832435A60236AA26926681A4398
:10235000B3680B273F02BB431343B3602F4A126B92
:102360009207920F06D0012A08D0022A08D0032A29
:1023700007D101E0002104E0022102E0042100E095
:1023800008210122E369D203934224D100290CD011
:1023900002290DD0042913D0082917D001250109DD
:1023A00009010007400F084332E0FEF7C3FE09E0D1
:1023B00061681B4A48088018FDF792FE80B2EEE77C
:1023C000FEF7C8FE616840004A08F4E76168012230
:1023D00048081204EFE7002908D0022909D004298F
:1023E0000BD008290ED001252846F8BDFEF7A2FE25
:1023F00005E061680B4A480806E0FEF7ABFE61683D
:102400004A0801E0616848088018FDF769FE80B25B
:102410002168C860E8E70000F369FFFF0010024090
:102420000024F40000127A00FFB581B017460E4672
:1024300004460A9D1DE0681C1BD0002D05D0FEF748
:10244000FBF90499401AA84213D920680168FF22B9
:10245000A132914301602068816849084900816088
:10246000202060346072A07200202072032005B02A
:10247000F0BD2068C1693046884304D00020B842CE
:10248000D9D00020F3E70120F9E702E008C8121FC5
:1024900008C1002AFAD170477047002001E001C14D
:1024A000121F002AFBD170479CB0FEF79BFCFFF780
:1024B0000DFEFFF79BFCFFF703FDFFF791FDFFF714
:1024C00059FDFFF72DFDF72016902A22424903A857
:1024D000FDF71CFE404C608D6946C886E06A0E9090
:1024E000206B0F9021460D22343110A8FDF70EFE0F
:1024F00020464030427810A94A7380788873606C17
:102500001490A06C1590EC201790F420199033A033
:102510000127006802246425E61E1A903346012232
:102520002D481799FEF744FA0028F7D11AA86946F2
:1025300031C13B4603A8199A1799FEF773FB092787
:10254000FF0618AD24486C38FEF770F80122102100
:102550003846FEF76BF93220FEF7B5F8002210215D
:102560003846FEF763F90024189419943346012283
:1025700019481799FEF71CFA0028F7D17D20C000F2
:1025800006210290019101230095EC211248169A30
:10259000FEF79CFA104864216C380094FDF7E6FFC2
:1025A000012805D00C486C38FDF7FAFE6946088012
:1025B000002409482919642301224C30FFF776FAD8
:1025C000641C062CF5D304486C38FEF75DF8142023
:1025D000FEF779F8B6E7000074000020FF10000055
:1025E00000000000000000000102030406070809C3
:1025F000000000000102030418260008000000206B
:10260000080000008A240008202600080800002096
:10261000680500009A2400080000000000127A00FB
:04000005080000B13E
:00000001FF
